:020000040800F2
:10000000E009002001010008CB2B0008ED250008C5
:10001000C92B0008150A0008E9310008000000009B
:10002000000000000000000000000000CB2F0008CE
:10003000970D000800000000C92F0008CD2F000810
:100040001B0100081B0100081B0100081B01000820
:100050001B0100081B0100081B0100081B01000810
:100060001B0100081B0100081B0100081B01000800
:100070001B0100081B0100081B0100081B010008F0
:100080001B0100081B0100081B0100081B010008E0
:100090001B0100081B0100081B010008E50D0008FA
:1000A0001B0100081B0100081B0100081B010008C0
:1000B0004D3000081B0100081B0100081B0100084F
:1000C0001B0100081B0100081B0100081B010008A0
:1000D0001B0100081B0100081B0100081B01000890
:1000E0001B0100081B0100081B010008DFF80CD0F1
:1000F00000F07AFB0048004771410008E009002049
:100100000648804706480047FEE7FEE7FEE7FEE7B1
:10011000FEE7FEE7FEE7FEE7FEE7FEE74930000800
:10012000ED000008202A04DB203A21FA02F0002129
:10013000704721FA02F3D040C2F1200291400843F7
:1001400019467047D2B201E000F8012B491EFBD2DC
:1001500070470022F6E710B513460A4604461946D2
:10016000FFF7F0FF204610BDF0B480EA0102D40F83
:100170004200B2EB410F02D20246084611464A0045
:1001800042D0C30DDDB2C1F3C752AD1A202D35DA0E
:10019000C1F3160141F4000204B15242C5F1200638
:1001A00002FA06F12A411044B3EBD05F23D0C4B168
:1001B000012DA0EBC35009DCF0BC4FF0004202EA75
:1001C000C352DBB200F5000000F0ACB9400000F112
:1001D000807000EBC350A0F1807040EAD1704900FC
:1001E00009E0490841EAC071A0EBC35000F50000E6
:1001F000400800EBC350F0BC00F08BB96142012213
:1002000002EB4101001BF6E7F0BC704781F00041B2
:10021000AAE780F00040A7E72DE9FE4F81EA03043A
:1002200004F0004421F0004100944FF0000B23F053
:10023000004350EA01045ED052EA03045BD0C3F3EA
:100240000A54C1F30A552C44A4F2F3340194A0FBE0
:100250000254C1F3130141F48011C3F3130343F4B7
:10026000801301FB024400FB034E840A970A44EA10
:10027000815447EA8357A4FB076802958D0A05FB62
:1002800007854FEA932C04FB0C542705029D4FEA87
:10029000065847EA1637B5EB08056EEB070C870ED4
:1002A000920E47EA811742EA8312A7FB0201B6EBDE
:1002B0000B0164EB00042B0D43EA0C335E1844EB96
:1002C0001C50DA465146E7FB0201C5F313044FEA1E
:1002D0000B3343EA14534FEA0432019C43EA06030A
:1002E000A4F10C040294009CCDE900B400F057F98D
:1002F00003B0BDE8F08F00200146F9E72DE9F04D8D
:1003000081EA030404F0004B21F0004514464FF04D
:10031000000A23F0004150EA050220D054EA01020D
:100320001DD0C5F30A570246C5F31303C1F31300EA
:10033000C1F30A5640F4801543F48013A7EB060876
:10034000101BD64608F2FD3873EB050002D308F106
:10035000010801E092185B41B8F1000F03DA0020B8
:100360000146BDE8F08D00204FF48011064684461A
:100370000EE0171B73EB050705D3121B63EB050398
:1003800006434CEA010C49084FEA300092185B41E1
:1003900050EA0107EDD152EA030012D082EA0400CC
:1003A00083EA0501084305D0101BAB4106D20122A8
:1003B000002306E000224FF0004302E06FF001024C
:1003C00053101AEB06004CEB085110EB0A0041EBFE
:1003D0000B01BDE8F04D00F0D3B870B521F000433B
:1003E00003430CD0C1F30A550024D5EB040564EB9C
:1003F0000403D617AD1AB34102DB0020014670BDDD
:10040000201841EB025170BD96230022114600F0E6
:1004100089B800F0004230F000400AD0C10D01F56B
:100420006071C0F3160042EA0151C208400711434F
:10043000704700200146704701F0004330B421F0BE
:10044000004150EA010206D00A0DA2F56072C1F324
:100450001301002A02DC30BC00207047440F44EA3C
:10046000C104C100E01830BC00EBC25000F051B82C
:10047000002801DBC0F10040002901DBC1F100418F
:100480008842704730B50B460146002020220124E7
:1004900009E021FA02F59D4205D303FA02F5491B52
:1004A00004FA02F52844151EA2F10102F1DC30BD68
:1004B0002DE9F05F0546002092469B468846064699
:1004C000814640241BE02846414647462246FFF726
:1004D00029FE53465A46C01A914110D31146184678
:1004E000224600F093F92D1A67EB01084F46224689
:1004F0000120002100F08AF917EB00094E41201E6F
:10050000A4F10104DFDC484631462A464346BDE8F3
:10051000F09F0029A8BF7047401C490008BF20F089
:100520000100704710B4B0FA80FC00FA0CF050EAF9
:10053000010404BF10BC704749B1CCF1200421FA7A
:1005400004F411FA0CF118BF012121430843A3EB75
:100550000C01CB1D4FEA00614FEA102042BF002082
:1005600010BC704700EBC35010440029A4BF10BC5E
:100570007047401C490008BF20F0010010BC7047C4
:1005800010B5141E73F1000408DA401C41F100019B
:1005900092185B411A4301D120F0010010BD2DE9F2
:1005A000F04D92469B4611B1B1FA81F202E0B0FAE9
:1005B00080F22032904600F029F904460F4640EAC6
:1005C0000A0041EA0B0153465A46084313D011462C
:1005D00053EA010019D0C8F140025046FFF7A2FDCE
:1005E00005460E4650465946424600F00FF908436C
:1005F00005D0012004E020463946BDE8F08D0020FA
:10060000054346EAE0762C4337430A986305E40A3B
:10061000A0EB08000022FD0A44EA47540A3002D544
:1006200000200146E9E7010510196941DDE90845A7
:1006300000196941BDE8F04DA2E72DE9FE4F804663
:1006400081EA0300C00F0C46009021F0004123F026
:100650000045B8EB0200A94105D24046214690462C
:100660001C460B46024623F00040104347D0270D9E
:10067000C7F30A00C3F30A510290401A01904028C0
:100680006BDAC3F3130040F4801B0098924620B14C
:100690000023D2EB030A63EB0B0B01985946C0F120
:1006A0004002504600F0B2F806460D465046594604
:1006B000019A00F0BAF810EB08006141002487EAC3
:1006C000115284EAE7731A4340D0009A62B3019A48
:1006D000012A4FEA075215DC001B61EB02014FF0C3
:1006E000004202EA0752CDE90042001C41F58011A8
:1006F00032462B46FFF753FF03B0BDE8F08F40466C
:100700002146F9E7001B61EB0201001C41F5801353
:1007100000185B412018A2F5001747EB030140EADF
:10072000D570B6196D4111E06D084FEA360645EAFD
:10073000C0754FEA0752001B61EB0201001C41F536
:10074000801149084FEA30000019514132462B46CA
:1007500003B0BDE8F04FFFF713BF0098012240003F
:100760000023D0EB020263EBE073009821464FEACE
:10077000E074B8EB000061EB0401E9E783F00043AB
:100780005BE781F0004158E7C1F30A52C1F313015E
:1007900040F2FF3341F480119A4202DA0020014610
:1007A000704740F233439A42A2F2334202DC524293
:1007B000FFF7B8BC00F02AB830B5041E71F1000490
:1007C00004DB4FF00044404264EB0101141E73F15E
:1007D000000405DB1C464FF00043524263EB040368
:1007E000994208BF904230BD064C074D06E0E068D4
:1007F00040F0010394E8070098471034AC42F6D368
:10080000FFF778FC6C4B00088C4B0008202A04DBB7
:10081000203A00FA02F1002070479140C2F1200313
:1008200020FA03F3194390407047202A06DBCB17C8
:10083000203A41FA02F043EAE07306E041FA02F39B
:10084000D040C2F120029140084319467047000091
:1008500070B5044600688168C943C90717D181682B
:1008600021F00101816000F0CFFE05460AE000BFE3
:1008700000F0CAFE401B022804D920688068C043EB
:10088000C00706D020688068C043C007F0D00020B1
:1008900070BDA06A40F01000A062E06A40F0010064
:1008A000E062012070BD10B50146406A826A12F014
:1008B000500F05D0006A026BBDE810400846104793
:1008C000816A41F40071816201688968C1F3424123
:1008D00007290CD1017B51B9816A21F480718162B1
:1008E000816AC90403D4816A41F00101816200F088
:1008F00069FB10BD10B5406A816A41F04001816218
:10090000C16A41F00401C16200F05EFB10BD10B588
:10091000406A00F058FB10BDF8B50026044600966A
:1009200000688168C943C9072DD0816841F0010181
:100930008160164816490068B0FBF1F000E0401EE7
:1009400000900028FBD100F05FFE054616E000BFD6
:1009500000F05AFE401B022810D920688068C0436E
:10096000C0070BD0A06A40F01000A062E06A40F01F
:100970000100E06284F824600120F8BD20688068EE
:10098000C043C007E4D10020F8BD000018000020DB
:1009900040420F0001229103014800F030BE0000E8
:1009A000000C014070B50122074D940321462846F2
:1009B00000F025FE642000F0CBFC21462846BDE86F
:1009C0007040002200F01BBE000C014000224FF4DA
:1009D0008041014800F013BE000C014010B50C4CE2
:1009E0002046E1688079002901DC08B90CE028B1D3
:1009F0000220E0600020A071FFF7CCFFE068002833
:100A000001DD401EE06010BDBDE81040FFF7DEBF15
:100A10002C000020FEE7000070B5002400F02AF84A
:100A20004FF40055124E04E0641CE4B2012000F0C3
:100A3000B3F92946304600F0DDFD10B1642CF3D344
:100A40000FE0642C0DD2002404E0641CE4B2012009
:100A500000F0A2F92946304600F0CCFD18B1642C14
:100A600004D3012070BD642CEFD3FAE7002070BDE1
:100A7000000C01401FB50020019002904FF400507F
:100A80000090032003906946014800F0C3FC1FBD9D
:100A9000000C01401FB54FF4005000900120019060
:100AA0000290032003906946014800F0B3FC1FBD8B
:100AB000000C014070B500244FF40055134E04E0C3
:100AC000641CE4B2012000F067F92946304600F0CA
:100AD00091FD08B1642CF3D3002404E0641CE4B25B
:100AE000012000F059F92946304600F083FD08B98D
:100AF000642CF3D3282000F04FF92946304600F04B
:100B000079FD002800D0012070BD0000000C0140DC
:100B100070B5002004464006050EFFF7CBFF641CAD
:100B20002843E4B2082CF6D370BD2DE9FC410D46F4
:100B3000064600F023F8FFF76FFF10B10120BDE873
:100B4000FC8100246F46FFF7E3FF3855641CE4B2D4
:100B5000052CF8D39DF800109DF801009DF8033096
:100B60000A189DF8020003441A449DF804309A4282
:100B700001D1297030700020E1E7000070B5FFF767
:100B800089FF0A4D4FF4005400222146284600F008
:100B900036FD142000F0DCFB01222146284600F03F
:100BA0002EFDBDE870401E2000F0F6B8000C01409C
:100BB00010B5284CA07800284AD1611C481EFFF7C8
:100BC000B4FF78B124A1294802F018FB0123274A79
:100BD0000821002002F008F9BDE810404FF4FA7037
:100BE00000F0B6BB2378627821A1204802F006FB12
:100BF00001231E4A0821002002F0F6F86078217ACD
:100C0000884203D82278E3799A421FD9627902B1E7
:100C10000122A271884205D92278E3799A4201D94A
:100C200018A108E0884201D91CA104E02078E179EC
:100C300088420DD91FA10D4802F0E0FA01231821C6
:100C4000BDE81040094A002002F0CEB81FA1F2E72B
:100C500010BD00002C000020483A2D2D2025252015
:100C6000543A2D2D2027432020000000C5050020E8
:100C7000483A20256420252520543A202564202741
:100C80004300000048494748204820202048494761
:100C900048205420202020200000000048494748D8
:100CA000204820202020202020202020202020201C
:100CB00000000000484947482054202020202020E0
:100CC00020202020202020200000000020202020A4
:100CD0002020202020202020202020202020202014
:100CE0000000000010B54FF4FA740EE012A117488E
:100CF00002F084FA00210123144A084602F074F835
:100D000002F032F8204600F023FB1149481EFFF79D
:100D10000CFF0028EAD101F08DFF0EA10B4802F074
:100D20006DFA00210123094A084602F05DF8BDE88A
:100D3000104002F019B80000436F6E6E65637420B6
:100D40004448542E2E2E202020202000C5050020AF
:100D50002D000020436F6E6E6563742073756363AE
:100D600065737366756C21200000000030B590F843
:100D700040500124AC40C56B6C60046863604368FC
:100D8000102B036803D099600068C26030BD9A6080
:100D90000068C16030BD70472DE9F0414FF0E0249C
:100DA0000546A76900F030FC064605EBC500C50006
:100DB000BD420BD900F028FCB042FBD00849781B9B
:100DC0000844A1698142FCD8BDE8F0817D1BA0697F
:100DD000A842F9D900F018FCB042F8D0F4E70000BE
:100DE00040190100202000F009BB72B6FEE70000A8
:100DF000F8B500250446009590F8240001280BD092
:100E0000012084F824002046FFF722FD2046FFF74A
:100E100083FD060002D050E00220F8BDA06A20F455
:100E2000885040F00200A062022000F023FE254915
:100E30000968B1FBF0F0400000E0401E009000287F
:100E4000FBD12068816841F00801816000F0DCFB83
:100E5000074608E000F0D8FBC01B0A2803D9206829
:100E60008068000715D4206880680007F2D42068E5
:100E7000816841F00401816000F0C6FB074612E082
:100E800000F0C2FBC01B0A280DD92068806840070B
:100E900009D5A06A20F0020040F01000A06284F89A
:100EA00024500120F8BD206880684007E8D4A06A7B
:100EB00020F0020040F00100A06284F82450304687
:100EC000F8BD000018000020F8B50024009490F848
:100ED00024202546012A12D0012280F824204A68C5
:100EE0001F23072A0DD20668776B521E02EB82027F
:100EF00093409F430B6893401F43776319E00220A0
:100F0000F8BD06680D2A0AD2376BD21F02EB8202A7
:100F100093409F430B6893401F43376309E0F76A90
:100F20000D3A02EB820293409F430B6893401F43AC
:100F3000F7620A68072306680A2A0AD3F7680A3A9A
:100F400002EB420293409F438B6893401F43F7603C
:100F500008E0376902EB420293409F438B6893405D
:100F60001F4337610A68102A01D0112A20D1124B81
:100F700002689A4217D193681B0219D4936843F40C
:100F8000000393600968102912D10C490C4A0968C2
:100F9000B1FBF2F101EB8101490000E0491E009133
:100FA0000029FBD104E0816A41F020018162012423
:100FB00080F824502046F8BD00240140180000208D
:100FC00040420F0070477047704700002DE9F04124
:100FD0004FF0000704003D467ED0A06A002628B9E5
:100FE000E66284F82460204600F07EF82046FFF791
:100FF0002FFCA16A01F01001014304D0A06A40F067
:101000001000A06268E0A16A21F4885141F0020159
:10101000A1626268E169237B0A4347EA43010A430C
:10102000A1684FF48077B94208D0012906D0002189
:1010300094F814C0BCF1010F02D00AE03946F7E77A
:10104000F3B1A36A43F02003A362E36A43F0010310
:10105000E3622368D3F804C02CF4694C4CEA010C19
:10106000C3F804C023689968DFF870C001EA0C0176
:1010700011439960A168B9420BD0012909D00CE055
:10108000DFF85CC0A3690CEB43330B4343F400610E
:10109000DFE7218A0D05A5F580152168CB6A23F4C9
:1010A00070032B43CB62216889680E4B1940914233
:1010B00008D1E662A16A21F0020141F00101A162BA
:1010C000BDE8F081A06A20F0020040F01000A062AC
:1010D000E06A40F00100E0620120F1E7FDF7E1FF86
:1010E00000E0FFFFFE0E1FFF70B586B0002506462C
:1010F000009501950295039500681A4988422ED102
:101100001949886940F400708861886900F40070AA
:101110000490886940F0080088618869694600F099
:101120000800049002200090032001900F4800F076
:1011300071F9104C0E48C4E900058020C4E9025042
:1011400040002061800060612020C4E9060520463F
:1011500000F098F808B1FFF748FE3462666206B006
:1011600070BD00000024014000100240000C01404E
:1011700008000240880000202DE9F0478946044617
:101180003B4900683B4F0E1D9046884201D0B84253
:1011900007D1306810F4702F03D001252846BDE830
:1011A000F08794F8240001280CD0012084F8240052
:1011B0002046FFF7B1FB05004FF0000004D084F893
:1011C0002400EBE70220EAE7A16A40F601629143BE
:1011D00041F48071A1622168B94218D1326812F4D9
:1011E000702F14D0A16A41F48011A16231684905C1
:1011F00005D5A16A21F4005141F48051A162A16A90
:10120000C9040AD5E16A21F00601E16206E0A26A9A
:1012100022F48012A2624968E9E7E06284F82400BF
:10122000216A15488862216A1448C862216A1448F4
:10123000086321686FF0020008602068816841F44B
:1012400080718160216843464A464C31206A00F033
:1012500047F820688168C1F342410729816803D0BB
:1012600041F48011816099E741F4A001FAE70000A0
:101270000024014000280140A70800080F090008C9
:10128000F508000830B528B308C8134914221944DA
:10129000B1FBF2F18900C1631049816302214177FA
:1012A0001A6843F6F0718A43D0E900142143D0E96B
:1012B00002452C4321430469214344692143846945
:1012C00021431143196000214163012242770177D4
:1012D000084630BD012030BDF8FFFDBF00000240D0
:1012E00070B5044690F82000002501280CD001209C
:1012F00084F8200094F821600020012E06D084F8A4
:1013000020000225284670BD022070BD022684F808
:101310002160A0632068066826F00106066020466A
:10132000FFF724FDE06A00282068016802D041F040
:101330000E0106E021F0040101602068016841F01F
:101340000A0101602068016841F001010160D9E7EC
:1013500070B5044600F058F90546601C02D00448F8
:101360000078044400F050F9401BA042FAD370BD4D
:101370000C00002070B520280DD115480025164915
:10138000027814480123047814482AB1012A02D1B2
:101390000370D4B10B7070BD0522426003700CB1B4
:1013A0000B7000E00D700EA1134801F027FF012320
:1013B000114A2821002001F017FDBDE870400823E4
:1013C00078222821002001F001BC0D7070BD0000C2
:1013D0002E00002031000020320000201C000020E0
:1013E00020736F6D657468696E67207061737365D3
:1013F0006420256420000000B0050020044910B5D9
:101400000A68024202D00860FFF7B4FF10BD000076
:10141000140401402DE9F84FDFF8B8910024A9F138
:10142000040B23460F2709F1040AABF1040EC9E0AF
:101430000125A5402A40AA427DD1674ED1F804C0BB
:10144000ACEB0608B44532D014DCBCF1030F3AD043
:1014500009DCBCF1000F2AD0BCF1010F1CD0BCF19B
:10146000020F31D11DE0BCF1110F17D0BCF1120FEA
:101470002AD119E0B8F5881F19D006DCB8F5803FED
:1014800015D0B8F5801F1FD111E0B8F5001F0ED0A0
:10149000B8F5041F18D10AE0CB6815E0CB681B1D16
:1014A00012E0CB6808330FE0CB680C330CE08B689C
:1014B0002BB1012B4FF0080303D0456104E0042356
:1014C00002E0056100E00023FF2A01D8064601E0A2
:1014D00000F104064FEA840501D9A5F12005D6F8EC
:1014E000008007FA05FC28EA0C0803FA05F548EA2B
:1014F0000508C6F800804D68ED0062D5374DAE692D
:1015000046F00106AE61AD6924F0030605F0010561
:101510000095334D06EB050CDCF80850A607360F96
:1015200007FA06F825EA0805DFF8B880404503D138
:101530004FF0000817E044E0DFF8AC80404502D1EE
:101540004FF001080FE0DFF8A480404502D14FF0D2
:10155000020808E0DFF89880404502D14FF0030808
:1015600001E04FF0040808FA06F848EA0508CCF84C
:1015700008804D68D9F80060ED024D4601D516434C
:1015800000E096432E604D68DAF80060AD025546E3
:1015900001D5164300E096432E604D68DBF80060ED
:1015A000AD035D4601D5164300E096432E604D68BD
:1015B000DEF80060ED03754601D5164300E0964362
:1015C0002E60641C0D682A46E5407FF431AFBDE80B
:1015D000F88F0000080401400000111000100240C4
:1015E0000000014000080140000C014000100140D3
:1015F000001401408068084000D0012070470AB103
:10160000016170470904FBE70148806870470000EA
:101610000C00002070B5040025D094F83D00002592
:1016200020B984F83C50204600F04EF9242084F87C
:101630003D002068016821F0010101602068016817
:1016400041F4004101602068016821F4004101601B
:1016500000F06EFB4D4A6168914201D84C4900E0B0
:101660004C49884201D2012070BD4B492368B0FB30
:10167000F1F15E6826F03F060E435E6063689342B8
:1016800006D94FF4967359434FF47A73B1FBF3F1D3
:101690002368491C1E6A26F03F06314319626168BF
:1016A000914210D84900401EB0FBF1F2521CC2F327
:1016B0000B02042A01D2042022E0B0FBF1F0401C0E
:1016C000C0F30B001CE0A268F2B301EBC10303EB13
:1016D0000116431EB3FBF6F35B1C43F480431B056A
:1016E00049D092B301EBC10202EB0111401EB0FBE5
:1016F000F1F0401CC0F30B0040F4804040F4004087
:101700002168CA694CF6FF739A431043C861D4E953
:10171000071001432068026822F0C00211430160F3
:10172000D4E9030101432068826848F2FF339A43F9
:1017300011438160D4E9050108432168CA6822F099
:10174000FF021043C86001E00EE016E02068016867
:1017500041F0010101602564202084F83D002563EB
:1017600084F83E50002070BD01EB4106431EB3FBE0
:10177000F6F35B1CB3E70120C2E701EB4101401E19
:10178000B0FBF1F0401CC0F30B00B7E7A0860100EE
:1017900080841E0000093D0040420F002DE9F84FF3
:1017A0001F4690468A460446DDF82890FFF72CFF36
:1017B000054694F83D0020287FD119230122404995
:1017C0002046009500F0A4FF002876D194F83C0054
:1017D000012872D0012084F83C0020680168C90704
:1017E00003D1016841F0010101602068016821F422
:1017F00000610160212084F83D00102084F83E0043
:1018000000262664C4F824806785608D20852D48D5
:10181000E0622B464A465146204600F0FFFE90B952
:10182000206841698069009036E02A464946204692
:1018300001F014F850B1206C042804D1206801682C
:1018400041F4007101600120BDE8F88F606A2168F1
:1018500000780861606A401C6062618D491E618584
:10186000218D491E89B2218522685369DB435B07BC
:101870000BD451B100781061606A401C6062608DC9
:10188000401E6085208D401E20852A464946204600
:1018900000F012FF0028CED1208D0028C5D154F8C9
:1018A0003D0B016841F400710160202004F81E091D
:1018B000E67766770020C7E7FFE70220C4E700006D
:1018C000020010000000FFFF10B586B0002100915B
:1018D00001910291039100680F4988421AD10F4C7F
:1018E000A06940F00800A061A069694600F0080006
:1018F0000490C0200090122001900320039008481B
:10190000FFF788FDE06940F40010E061E06900F451
:101910000010049006B010BD0054004000100240BA
:10192000000C01401CB502238DF804000A208DF83C
:101930000510009001AA78210148FFF72FFF1CBD78
:10194000CC00002002488168027811448160704711
:101950000C000020074810B5016841F0100101603B
:10196000032000F075F80F2000F006F800F024F8CE
:10197000002010BD0020024070B50D4D04464FF40C
:101980007A712878B1FBF0F00A490968B1FBF0F0F0
:1019900000F0A4FB48B9102C07D200222146501EAB
:1019A00000F036F800206C6070BD012070BD0000B2
:1019B0000C000020180000200C4808B5816941F097
:1019C00001018161816901F001010091C16941F06A
:1019D0008051C161C06900F08050009004484168A6
:1019E00021F0E06141F00071416008BD001002404B
:1019F00000000140002809DB00F01F020121914096
:101A00004009800000F1E020C0F80011704700009C
:101A1000F0B40E4B1B680C46C3F30223C3F1070559
:101A2000042D00D90425191D072901D2002300E047
:101A3000DB1E012606FA05F1491E214099409E4011
:101A4000761E16403143F0BC01F0ECBB0CED00E01B
:101A5000064900F0070208684FF6FF03184040EA05
:101A60000220034A10430860704700000CED00E0BC
:101A70000000FA0510B501460020234C012922D0B0
:101A8000022939D010291DD161682268D20119D5E7
:101A90001E48C1F38342C903805C0AD561681B4AB2
:101AA000C1F34041921E515C194AB2FBF1F1484327
:101AB00001E0184948436168490203D4400003210A
:101AC000B0FBF1F010BD226AC2F30121012903D15C
:101AD000920701D5C80310BD022905D1626A920799
:101AE00002D549F6404010BD0329FCD12168890385
:101AF000F9D54FF2244010BD00F02AF96168C1F316
:101B00008131491C4900DBE700100240E84200082F
:101B100000127A0000093D002DE9F84305460078DF
:101B2000354CC00754D0E0690026C00008D4E069F5
:101B300040F08050E061E069012600F080500090A4
:101B40002E480168C90512D40168804641F48071AD
:101B50000160FFF759FD074605E000BFFFF754FDA0
:101B6000C01B642823D8D8F80000C005F6D5206A29
:101B700010F4407021D0A98801F4407181421CD03A
:101B8000206A1F49012220F440700A6000220A6086
:101B90002062C00711D0FFF737FD074641F28838B1
:101BA00008E000BFFFF730FDC11B414502D903200B
:101BB000BDE8F883206A8007F4D5206A696820F4BC
:101BC0004070084320621EB1E06920F08050E0615F
:101BD0002878800705D56068A96820F4404008434C
:101BE00060602878C00605D56068E96820F4800048
:101BF000084360600020DBE70010024000700040F6
:101C0000400442422DE9F0470F46050061D0434EA3
:101C1000306800F00700B84209D2306820F00700B1
:101C200038433060306800F00700B84251D128686E
:101C30003B4C810712D5400703D5606840F4E06053
:101C400060602878000703D5606840F460506060E9
:101C50006068A96820F0F000084360602878C00739
:101C600028D06868012810D02168022810D0890780
:101C700000292EDA616821F0030101436160FFF75A
:101C8000C3FC804641F288390DE021688903EFE703
:101C90008901EDE7FFF7B8FCA0EB0801494502D93F
:101CA0000320BDE8F0876068696800F00C00B0EBC5
:101CB000810FEFD1306800F00700B8420BD93068CF
:101CC00020F0070038433060306800F00700B84269
:101CD00001D00120E5E72878400705D56068E9686C
:101CE00020F4E060084360602878000706D560684B
:101CF000296920F4605040EAC100606000F038F8C3
:101D00006168084AC1F30311515CC8400649086084
:101D100006480068FFF730FE0020C2E700200240BE
:101D200000100240F84200081800002010000020B7
:101D30000448054900684968044AC1F30221515C1E
:101D4000C8407047180000200010024008430008F7
:101D50000448054900684968044AC1F3C221515C3E
:101D6000C8407047180000200010024008430008D7
:101D70000E4A51680E4801F00C03042B11D0082BB9
:101D80000FD10C48C1F38343C903C05C0AD5516825
:101D9000084AC1F34041921E515C054A5043B0FBD2
:101DA000F1F07047044948437047000000100240BA
:101DB00000127A00D642000800093D002DE9F84FD4
:101DC000040070D02078C04DC00749D06868C0F3C7
:101DD0008100012807D06868C0F38100022809D17A
:101DE0006868C00306D52868800339D56068002874
:101DF000E7D035E06068B0F5803F0BD010B1B0F5AA
:101E0000A02F11D0286820F480302860286820F4A2
:101E1000802002E0286840F480302860606890B13B
:101E2000FFF7F2FB06460AE0286840F480202860AD
:101E3000F0E700BFFFF7E8FB801B642873D8286831
:101E40008003F7D50CE0FFF7DFFB064605E000BF97
:101E5000FFF7DAFB801B6428F0D828688003F7D4EA
:101E600020789A4E80074FF001094FF0000839D5CD
:101E7000686810F00C0F07D06868C0F38100022872
:101E800009D16868C00306D42868800714D5206982
:101E9000012808D110E02069B0B1C6F80090FFF722
:101EA000B3FB074605E00AE1FFF7AEFBC01B0228C3
:101EB000C4D828688007F7D52868616920F0F80041
:101EC00040EAC10028600DE0C6F80080FFF79CFBE7
:101ED000074604E0FFF798FBC01B022823D82868B8
:101EE0008007F7D4207800072CD57948A169D9B1AB
:101EF000C0F80090FFF788FB074604E0FFF784FB7B
:101F0000C01B02280FD8686A8007F7D571484FF4C4
:101F1000FA510068B0FBF1F0009000BF0098411E3C
:101F20000091FAD20EE080E0C0F80080FFF76CFB71
:101F3000074604E0FFF768FBC01B022875D8686AF3
:101F40008007F7D42078400760D5E8690027C000F3
:101F500008D4E86940F08050E861E869012700F0A2
:101F6000805000905C480168C90513D4016883461D
:101F700041F480710160FFF747FB824606E000BF35
:101F8000FFF742FBA0EB0A0064284ED8DBF8000004
:101F9000C005F5D5E06801280AD008B1052813D09E
:101FA000286A20F001002862286A20F0040002E07C
:101FB000286A40F001002862E06841F2883B98B14D
:101FC000FFF722FB82460BE0286A40F004002862FB
:101FD000EEE700BFFFF718FBA0EB0A0159455AD8FE
:101FE000286A8007F6D50CE0FFF70EFB824605E075
:101FF000FFF70AFBA0EB0A0159454CD8286A800775
:10200000F6D41FB1E86920F08050E861E06988B338
:102010006968C1F38101022944D00228C6F86080B2
:1020200004D0FFF7F1FA044638E034E0FFF7ECFAA9
:10203000074604E0FFF7E8FAC01B02282BD82868FF
:102040008001F7D4206AB0F5803F05D16868A168A7
:1020500020F4003008436860D4E908010843696847
:1020600021F4741108436860C6F86090FFF7CCFA59
:10207000044606E025E000BFFFF7C6FA001B022871
:1020800009D828688001F7D51BE000BFFFF7BCFA2C
:10209000001B022802D90320BDE8F88F28688001C0
:1020A000F4D40EE00128F7D06868226A00F4803189
:1020B000914204D1616A00F47010884201D001207D
:1020C000EAE70020E8E7000000100240000042427A
:1020D00080044242180000200070004010B5401EED
:1020E000B0F1807F01D3012010BD4FF0E02460618A
:1020F0000F21601701F096F80020A06107202061F1
:10210000002010BD7047704770B590F83C20012A40
:1021100026D0012480F83C40022280F83D2003684C
:102120005A689D6822F070060A6832435A600D4B67
:1021300002689A4208D0B2F1804F05D00A4B9A4209
:1021400002D00A4B9A4204D1496825F08003194312
:10215000916080F83D40002180F83C10084670BD39
:10216000022070BD002C0140000400400008004027
:1021700010B5040003D094F83D0010B107E0012031
:1021800010BD002084F83C00204600F01FF802201B
:1021900084F83D00211D206800F05EFF012084F8D6
:1021A000460084F83E0084F83F0084F8400084F83C
:1021B000410084F8420084F8430084F8440084F825
:1021C000450084F83D00002010BD000008B50068FF
:1021D000B0F1804F12D10A48C16941F00101C161DB
:1021E000C069002200F00100009011461C20FFF79A
:1021F0000FFCBDE808401C20FFF7FCBB08BD000039
:102200000010024090F83D10012901D001207047D4
:10221000022180F83D100168CA6842F00102CA60DC
:1022200000680B49884208D0B0F1804F05D00949B9
:10223000884202D00849884204D1816801F0070130
:10224000062903D0016841F00101016000207047B8
:10225000002C0140000400400008004070B5044616
:1022600090F83C000025012817D0012684F83C6036
:10227000022084F83D002068826822F0770222F470
:102280007F4282600868502838D00DDC20284FD06B
:1022900005DC90B3102811D14AE0022070BD30282F
:1022A00046D040280AD13BE060282FD070280DD0BE
:1022B000B0F5805F03D0B0F5005F12D0012584F83F
:1022C0003D60002084F83C00284670BDCB68D1E911
:1022D0000121206800F0F6FE2068816841F0770156
:1022E00009E0CB68D1E90121206800F0EBFE20680D
:1022F000816841F480418160E1E719E0CA6849687A
:10230000206800F0F1FE5021206806E0CA684968A4
:10231000206800F0FAFE6021206800F0DDFECEE7C4
:10232000CA684968206800F0DFFE40212068F4E7B1
:10233000226801461046F0E7704770B50446006811
:1023400001694FF00005C943890715D4C168C94325
:10235000890711D4E91E0161012020772068806976
:102360008007204602D0FFF7E7FF04E000F098F86E
:10237000204600F096F8257720680169C94349078F
:1023800017D4C168C943490713D46FF00401016130
:10239000022020772068806910F4407F204602D018
:1023A000FFF7CAFF04E000F07BF8204600F079F860
:1023B000257720680169C943090716D4C168C94354
:1023C000090712D46FF0080101610420207720680A
:1023D000C0698007204602D0FFF7AEFF04E000F09E
:1023E0005FF8204600F05DF8257720680169C94351
:1023F000C90617D4C168C943C90613D46FF01001C8
:102400000161082020772068C06910F4407F2046D1
:1024100002D0FFF791FF04E000F042F8204600F000
:1024200040F8257720680169C943C90708D1C16808
:10243000C943C90704D1891E0161204600F032F862
:1024400020680169C943090609D4C168C94309065E
:1024500005D46FF0800101612046FFF753FE20682C
:102460000169C943490609D4C168C943490605D46D
:102470006FF040010161204600F04CF820680169CE
:10248000C94389060BD4C168C943890607D46FF0D4
:10249000200101612046BDE87040FFF734BE70BDE9
:1024A0007047704770B50068B0F1804F2CD1174D60
:1024B00002212846FFF79EF8154C0121607028463E
:1024C000FFF798F8002120715FF0010201EB410055
:1024D000235C23B1012B07D0022B12D10BE003198F
:1024E0005B7873B922540CE003195D784DB902256D
:1024F00025549A7005E003195B78012B01D1002364
:102500002354491C0229E1DB70BD00000008014092
:1025100024000020704770B5040004D094F84100F6
:10252000002510B106E0012070BD84F8405020461F
:1025300000F024F8242084F841002068C16821F4C8
:102540000051C160204600F0F3FD2068016921F4CC
:10255000904101612068416921F02A0141612068B0
:10256000C16841F40051C1606564202084F84100D5
:1025700084F842006563002070BD000030B585B06E
:102580000024009401940294039400681449884242
:1025900023D11448C16941F40031C161C16901F41A
:1025A00000310491816941F00401816180690E4D1F
:1025B00000F0040004900420009002200190032009
:1025C000039069462846FEF725FF0820CDE9000460
:1025D000694628460294FEF71DFF05B030BD000095
:1025E000004400400010024000080140FEE701687E
:1025F0004A69D24352050FD46FF480624A610021C8
:1026000040F8301F202242738173026942F00402B5
:10261000026101730120704700207047F8B504463D
:10262000C06A1E460D461746082807D0012805D067
:1026300010F5803F02D0206B122804D12068016879
:1026400041F480710160134600224FF001112046D1
:10265000009600F05DF840B120680068C00502D522
:102660004FF4007020640320F8BD2069B0F5804F5E
:102670000ED00620216800EAD51040F0F000086175
:1026800033463A460B49204600F08AF878B902E012
:1026900005F0FE0000E0E8B2216808610549334614
:1026A0003A46891F204600F07BF80028DCD0012044
:1026B000F8BD00000800010070B516460D4604463E
:1026C0001EE02046FFF793FF08B1012070BD681C93
:1026D00016D0FEF799FF801BA84200D885B9206864
:1026E0004069C04340070BD5002044F8300F20213B
:1026F0006173A073216941F0200121612073E4E737
:1027000020684069C0434007DBD4002070BD000052
:102710002DE9F047984617460D460446C1F3074693
:10272000DDF820902AE000BFB8F1FF3F26D0FEF789
:102730006BFFA0EB0901414502D8B8F1000F1DD194
:102740002068012E16D0806925EA00000004000CE4
:1027500012D00020B84211D1002044F8300F2021BF
:102760006173A073216941F0200121612073012070
:10277000BDE8F0874069E7E70120EBE72068012E1C
:102780000AD0806925EA00000004000C06D0002071
:10279000B842C9D00020EBE74069F3E70120F7E732
:1027A0002DE9F047984616460D4604464FF00009BD
:1027B0004FF0200AC1F3074723E020684069C04377
:1027C000400515D42068016841F40071016021685A
:1027D0006FF480604861C4F8309084F83DA084F8BC
:1027E0003E90216C41F00401216484F83C9021E08A
:1027F000701C06D0FEF708FFA0EB0800B04203D81B
:1028000016B1012F1FD021E02068012F15D080695B
:1028100025EA00000004000C18D000BF44F8309FE7
:1028200084F80DA084F80E90216941F02001216107
:1028300084F80C900120BDE8F087406925EA00008B
:102840000004000CEAD12068406901E0206880693A
:1028500025EA00000004000CAFD1ECE770B5164685
:102860000D4604461EE02046FFF7C1FE08B10120D8
:1028700070BD681C16D0FEF7C7FE801BA84200D8AA
:1028800085B920684069C04300060BD5002044F894
:10289000300F20216173A073216941F02001216173
:1028A0002073E4E720684069C0430006DBD40020C1
:1028B00070BD00002DE9F041254EB078002844D1CC
:1028C000244F254C002500BF37F81500FDF79CFD6F
:1028D0002168FDF749FC6D1C2060032DF4DBFDF73A
:1028E00098FD00221D4BFDF709FD00221C4BFDF752
:1028F00093FC6FF00B02FDF770FDFDF79DFD20606E
:10290000FDF787FD02460B4616A1194800F076FC3C
:102910000123174A1021002000F066FA316920686F
:10292000FDF7A6FD0FD2707908B10120B07111A199
:102930000F4800F063FCBDE8F041012320210C4A60
:10294000002000F051BA11A1F2E7BDE8F0810000CB
:102950002C0000200000002008000020000008409B
:1029600000C8A9404C3A252E3366206D7600000041
:10297000C5050020546F6F204461726B2120202018
:1029800020202020202020200000000020202020C7
:102990002020202020202020202020202020202037
:1029A000000000003EB500211148009101910F4A3E
:1029B0000291026001248160047301754FF460226A
:1029C0000461C2614160FEF701FB08B1FEF70DFA38
:1029D0000920CDE900040220029069460448FEF770
:1029E00073FA002801D0FEF700FA3EBD0024014032
:1029F00058000020054808B5416941F001014161D6
:102A0000406900F00100009008BD00000010024085
:102A10002DE9F04186B000243048009401940294DE
:102A20000394816941F010018161816901F0100115
:102A30000491816941F020018161816901F02001E7
:102A40000491816941F004018161816901F004010F
:102A50000491816941F0080181618069DFF880801B
:102A600000F008004FF40056049000223146404622
:102A7000FEF7C5FD0122970339464046FEF7BFFD2C
:102A80000325CDE90054694616480294FEF7C2FCBE
:102A90000220CDE902400096012669460196404693
:102AA000FEF7B8FCCDE9007669464046CDE902451F
:102AB000FEF7B0FC202000900B48CDE901046946E8
:102AC0004046FEF7A7FC002203211720FEF7A0FFD7
:102AD0001720FEF78FFF06B0BDE8F081001002401E
:102AE000000C014000080140000021100D4810B505
:102AF0000B4901600C49416000214FF48042816024
:102B0000C0E9031241618161C1610162FEF782FD8A
:102B1000002803D0BDE81040FEF767B910BD0000E3
:102B200000540040CC000020A086010010B586B003
:102B300000241648009401940294039404944FF0E6
:102B40008041059401604721C0E9011442F20F71F0
:102B5000C0E903148461FFF70BFB08B1FEF745F9E8
:102B60004FF48050009069460848FFF777FB08B1A2
:102B7000FEF73BF9049404A904480594FFF7C4FA4E
:102B8000002801D0FEF731F906B010BD2001002069
:102B90000C4810B50A4901604FF4E1314160002151
:102BA00081600C22C160C0E904128161C161FFF73C
:102BB000B2FC002803D0BDE81040FEF716B910BDE6
:102BC0000044004068010020FEE7FEE72DE9F047E1
:102BD000814680282AD209EB0208B8F1800F25DC53
:102BE000002923DB402921DA01EB030ABAF1400F67
:102BF0001CDC0C4618E04D4612E00026A01901B27C
:102C00000F46284600F03EF890B10022394628468B
:102C100000F0CCF8761C36B2082EEFDB6D1C2DB21E
:102C2000A845EADC083424B2A245E4DCBDE8F0871C
:102C30000122EBE710B50021074C0A46002004EB07
:102C4000C1131A54401C80B28028FAD3491C89B29F
:102C50000829F3D310BD0000B001002030B4084CA7
:102C60000022002104EBC2135854491C89B2802968
:102C7000FAD3521C92B2082AF3D330BC00F074B8D5
:102C8000B001002010B5CA1701EB5272064CD310E8
:102C900004EBC31322F00702185C891AC840C0076E
:102CA00000D0012010BD0000B001002010B54FF48D
:102CB000FA70FEF74DFBAE2000F097FA202000F0EE
:102CC00094FA102000F091FAB02000F08EFA002063
:102CD00000F08BFA102000F088FAC82000F085FA86
:102CE000402000F082FA812000F07FFAFF2000F0FF
:102CF0007CFAA12000F079FAA62000F076FAA8204C
:102D000000F073FA3F2000F070FAA42000F06DFA92
:102D1000D32000F06AFA002000F067FAD52000F016
:102D200064FAF02000F061FAD92000F05EFA222067
:102D300000F05BFADA2000F058FA122000F055FAA1
:102D4000DB2000F052FA202000F04FFA8D2000F036
:102D50004CFA142000F049FAAF2000F046FABDE822
:102D600010400020FFF77ABF2DE9F0410E4F0024FC
:102D700004F1B000C0B200F038FA002000F035FADB
:102D8000102000F032FA002507EBC416705D00F049
:102D900030FA6D1CADB2802DF8D3641CA4B2082C9F
:102DA000E6D3BDE8F0810000B001002030B58028F6
:102DB00017D2002915DB402913DACB1701EB537327
:102DC00023F007040C1B0121064DA140DB1005EB8D
:102DD000C3131844002A027801D00A4300E08A4352
:102DE000027030BDB00100202DE9FF4F81B00C46CC
:102DF0008046802845D2002C43DB402C41DA4FF03E
:102E0000000B012B38D0022B3BD17CE0203838D48A
:102E1000B8F17D0F03DAC8F17F01062907DA08341B
:102E200024B2C4F13F014FF00008082929DB3949D9
:102E300000EB4000002501EB400908EB05000026EF
:102E40000FFA80F719F80500F04000F00102A01910
:102E500001B23846FFF7AAFF761CF6B2082EF1D36E
:102E60006D1CEDB2062DE8D308F106000FFA80F8CC
:102E70000BF1010000F0FF0B039810F80B00002885
:102E8000C4D105B0BDE8F08F2038FAD4B8F17F0F77
:102E900003DAC8F17F01082907DA103424B2C4F13B
:102EA0003F014FF000081029EBDB1B49002701EB25
:102EB00000100090002608EB0600002506EBC70A6C
:102EC0000FFA80F9009810F80A00E84000F00102BB
:102ED000601900EBC70001B24846FFF767FF6D1CA1
:102EE000EDB2082DEED3761CF6B2082EE3D37F1C8C
:102EF000FFB2022FDED308F108000FFA80F80BF1C1
:102F0000010000F0FF0B039810F80B000028BBD164
:102F1000B7E70000104300083845000810B51A480C
:102F200000238278194801782AB1012A02D10029A8
:102F300000D0037010BD164CB1B12268002A13DD19
:102F400014A11A4800F05AF90123184A2821002038
:102F5000FFF74AFF0823782228210020FFF736FEDA
:102F60002068401E206010BD05212160037010A163
:102F70000E4800F043F901232821BDE810400B4A18
:102F80000020FFF731BF00002C0000201C000020B3
:102F90002000002020736F6D657468696E67207073
:102FA000617373656420256420000000C50500205E
:102FB0002020206E6F7468696E672070617373657E
:102FC000642020200000000070477047FEF7BABC64
:102FD00030B593B028216846FDF7BBF814210AA844
:102FE000FDF7B7F8002501200F9510951195010404
:102FF00012958DE8230004904FF4E010CDE90810FD
:10300000022407946846FEF7D9FE08B172B6FEE7BF
:103010000AA90F2081E831004FF48060CDE90D0549
:1030200002210AA8FEF7EEFD08B172B6FEE74FF4E2
:10303000004011900F940FA8FEF76EFD002801D0FC
:1030400072B6FEE713B030BD704700000148FFF7CD
:1030500074B9000020010020F0B50268164B174C2F
:10306000174D4FF08047984205D0B84203D0A04298
:1030700001D0A84203D122F070064A683243984238
:1030800005D0B84203D0A04201D0A84203D122F417
:103090004074CA6822434C6922F0800222430260D5
:1030A0008A68C2620A688262984201D10969016332
:1030B00001214161F0BD0000002C014000040040EE
:1030C0000008004010B5846842EA032224F47F44DB
:1030D0000A432243826010BD826822F070020A43D4
:1030E00042F007018160704710B5036A046A24F05A
:1030F00001040462846924F0F00444EA021423F019
:103100000A020A438461026210BD10B5036A046AB0
:1031100024F010040462846923F0A00324F47044B2
:1031200044EA023243EA01118261016210BD0000EB
:1031300070B5044600680169E26821F4405111430A
:1031400001612169A0680843616908432168CA6870
:1031500041F20C639A430243CA6020684169A26944
:1031600021F44071114341611E492068884202D117
:10317000FEF7EEFD01E0FEF7DBFD00EBC00101EB29
:103180000012606864218000B2FBF0F3B3FBF1F33E
:103190006FF018067343B2FBF0F5B2FBF0F605EBE7
:1031A0008305322303EB0515B5FBF1F5B6FBF1F60C
:1031B00005F0F00505EB0615B2FBF0F6B2FBF0F0FA
:1031C000B0FBF1F06FF01802504306EB800003EB08
:1031D0000010B0FBF1F0216800F00F002844886077
:1031E00070BD000000380140FEE701460020FEF7F8
:1031F00099BB01464020FEF795BB00000FB4084B79
:1032000010B504A902AA039800F0DEF8044602A94A
:10321000002000F070FC204610BC5DF814FB00009C
:10322000F73A00080907090E002804DB00F1E02046
:1032300080F80014704700F00F0000F1E02080F8E3
:10324000141D704702E008C8121F08C1002AFAD1F5
:1032500070477047002001E001C1121F002AFBD116
:10326000704700002DE9FF5FDDE90220010DDDF868
:1032700038B0024318D044F61050A1F2FF31414358
:103280000D140F98012820D0A5EB0B00401C5FEA1D
:10329000000A4FF00004474EDFF81C91A04650464C
:1032A00016D5CAF1000728E00F98012443A201288F
:1032B00008D0002100980F9BC0E90021C0E902431B
:1032C000BDE8FF9F6FEA0B01F4E7CBF10000DEE7FA
:1032D000074612E0F80707D02246334640464946E3
:1032E000FCF79AFF80468946224633461046194627
:1032F000FCF792FF04460E467F10002FEAD1DDE96D
:103300000201BAF1000F42464B4602DAFCF784FF95
:1033100001E0FCF7F3FF04460E460022284BFDF7C0
:103320004BFA03D84FF0FF30014607E00022254B4F
:1033300020463146FDF781F9FDF726FA102409E011
:10334000002C0ADB0A220023FDF7B2F8019B303281
:103350001A55641E50EA0102F2D1641C019AC4F1AC
:10336000110314440F9A012A03D0012208430DD1FE
:103370000AE0084304D000204FF0110B0F9080E7C3
:10338000A3EB0B056D1E0DE05B4504DD4FF0000265
:1033900005F1010504E003DA4FF00002A5F1010593
:1033A000002AECD000980F99C0E90231C0E900452D
:1033B00086E70000000024400000F03F30000000DD
:1033C0000000F0430000E03F2DE9FF4F95B09B4621
:1033D0008946064600250FE2252877D10024274696
:1033E000F84A0121059400E0044316F8013F203B10
:1033F00001FA03F01042F7D130782A2811D06FF08B
:103400002F033078A0F13002092A16D8059A44F02B
:10341000020402EB820203EB42021044761C059088
:10342000EFE759F8042B0592002A03DA504244F4DE
:103430000054059044F00204761C30782E2816D1F2
:1034400016F8010F44F004042A280DD06FF02F0263
:103450003078A0F13003092B09D807EB870302EB82
:103460004303C718761CF3E759F8047B761C3078C1
:103470006C280FD006DC4C2817D068280DD06A289D
:1034800014D104E0742810D07A280FD10DE044F450
:1034900000140AE044F4801401E044F4401472780B
:1034A000824202D104F58014761C761C307866289E
:1034B0000BD013DC582877D009DC002875D04528BC
:1034C000F6D04628F4D047281AD19DE118E06328A9
:1034D00035D0642879D0652812D195E1702873D051
:1034E00008DC6728F1D069286FD06E280DD06F28CE
:1034F00006D1B5E073282CD0752875D0782874D003
:103500005A46179990476D1C75E1C4F30250022882
:1035100009D003280DD0D9F8001004280DD00D6073
:1035200009F1040967E1D9F80010EA17C1E900526E
:10353000F6E7D9F800100D80F2E70D70F0E719F802
:10354000041B8DF8001000208DF80100EA460120D0
:1035500003E059F804AB4FF0FF3061074FF0000172
:1035600002D40DE008F101018846B9420FDA804526
:10357000F8DB1AF808100029F4D108E008F101017D
:1035800088468142FADB1AF808100029F6D105981E
:103590005B46A0EB080721463846179A00F094FADC
:1035A000284400EB080507E04DE029E10DE01AF89A
:1035B000010B5A4617999047B8F10108F7D25B46BC
:1035C00021463846179A13E142E00A220092C4F3DA
:1035D00002524FF0000A022A08D059F804CB032AFD
:1035E0004FEAEC710AD00DE029E02AE009F1070169
:1035F00021F00702F2E802C1914609E00FFA8CFCC3
:103600004FEAEC71042A03D14FFA8CFC4FEAEC71BB
:10361000002907DA0A460021DCF1000C61EB020107
:103620002D2202E0220504D52B228DF80420012250
:1036300003E0E20701D02022F7E7904659E00A2193
:1036400002E010220DE010214FF0000A00910BE083
:1036500010224FF0000A44F004040827009203E00F
:1036600008224FF0000A0092C4F30252022A05D049
:1036700059F804CB0021032A08D009E009F1070119
:1036800021F00702F2E802C1914605E01FFA8CFC26
:10369000042A01D10CF0FF0C4FF00008220728D5B6
:1036A000702806D0009B83F0100353EA0A0305D06C
:1036B0000EE040228DF80420012208E05CEA0102BD
:1036C00006D030228DF804208DF8050002229046A5
:1036D000009B83F0080353EA0A030AD15CEA010263
:1036E00001D1620705D530228DF804204FF0010882
:1036F0007F1E582804D034A003900EA802900DE03D
:1037000036A0F9E753466046009AFCF7D1FE84469E
:103710000398825C0298401E029002705CEA0100ED
:10372000F0D1029806A9081A00F1200A600702D514
:1037300024F4803400E00127574502DDA7EB0A009E
:1037400000E0002000EB0A01009005984144401A77
:103750000590E00306D45B462146179A059800F0D1
:10376000B3F90544002706E001A85A46C05D179941
:1037700090476D1C7F1C4745F6DBE0030CD55B468C
:103780002146179A059800F09FF9054404E030207F
:103790005A46179990476D1C0099481E00900029C1
:1037A000F5DC08E0029802995A460078491C02911B
:1037B000179990476D1CBAF10001AAF1010AF1DCDA
:1037C00065E10000092801003031323334353637E5
:1037D000383961626364656600000000303132335D
:1037E00034353637383941424344454600000000FD
:1037F00000F058F90544761C307800287FF4ECADD1
:1038000019B02846BDE8F08F620700D4062709F1F9
:10381000070222F0070CFCE80223E14603F000480F
:103820005FEA080C02D00FF2702C0DE05FEA045C36
:1038300002D50FF2682C07E05FEAC47C02D00FF2D9
:10384000602C01E0AFF2700C4FF0FF3823F0004322
:10385000CDF850C065280CD006DC452809D0462894
:103860001DD047283DD13DE0662818D067287ED17D
:1038700038E00021112F01DB112000E0781CCDE998
:10388000000106A90EA8FFF7EDFCDDE90F010E9A75
:1038900003910021009207F1010A04914DE04FF0DD
:1038A00000400097CDE9011006A90EA8FFF7DAFC49
:1038B000DDE90F0203920E9B11990022DDF80CA0A6
:1038C0000093049211B9791C00EB010AB7EB0A00CE
:1038D00004D4C0F1FF3007F1010A0490AAEB0700FD
:1038E000019044E0012F00DA01270021112F01DDB2
:1038F000112000E03846CDE9000106A90EA8FFF727
:10390000B1FCDDE90F010E9A0391002104910092B0
:10391000BA4621070CD40399514500DA8A46BAF118
:10392000010F05DD009AAAF10101515C302908D090
:10393000B84202DA10F1040F06DA0121CDE90110D4
:1039400015E0AAF10101E9E7002805DC049901442A
:103950000491AAEB000102E0411C514500DD8A46BA
:103960000499401A401C01904FF00040029020073B
:1039700004D40198504501DBCDF8048000208DF877
:103980004F0002980DF14F07B0F1004F25D02B20CA
:103990000E9002984FF0020800280CDA4042029084
:1039A0002D200E9007E00A210298FCF76BFD3031C4
:1039B000029007F8011DB8F10001A8F10108F2DC3E
:1039C00002980028EFD1791E0E980870307800F028
:1039D000200040F0450007F8020D12A8C01B00F1BE
:1039E00007081498007800B1012000EB0A01019843
:1039F00001EBE07105984144401A401E0590E00338
:103A000006D45B462146179A059800F05DF80544F8
:103A10001498007818B15A46179990476D1CE00326
:103A200024D55B462146179A059800F04DF80544C9
:103A30001CE00498002807DBDDE90301884203DD70
:103A40000098405C179901E0179930205A4690473A
:103A5000049805F10105401C04900198401E019056
:103A600004D12E205A46179990476D1CBAF10001D7
:103A7000AAF1010ADDDC05E017F8010B5A46179997
:103A800090476D1CB8F10001A8F10108F4DC5B4619
:103A90002146179A0598ABE62D0000002B00000088
:103AA000200000002DE9F041044600251E4617467F
:103AB000880404D405E039462020B0476D1C641EFC
:103AC000F9D52846BDE8F0812DE9F04104460025EE
:103AD0001E469046C80301D5302700E02027880401
:103AE00004D505E041463846B0476D1C641EF9D543
:103AF0002846BDE8F0810A68531C0B6010707047BF
:103B00002DE9F047FE4CFF4E2046A278B178012700
:103B1000C0784FF0080900259AB14FF0020A012A37
:103B200036D04FF00308022A7CD0032A2ED1002978
:103B300079D02079032877D0042876D0082875D149
:103B400099E1E1B1082812D0EFA1F548FFF756FB43
:103B50000123F34A38210020FFF746F908233622D3
:103B600038210020FFF732F884F8039006E008239C
:103B7000362238210020FFF729F8E570B5707079FA
:103B8000002803D0E078082870D07571BDE8F08770
:103B900039B101282DD0072849D008280DD0E5706B
:103BA000B57070790028F1D0E07801285FD007283F
:103BB00072D0082854D0E570E7E708231E22382188
:103BC0000020FFF703F8607908B1D6A100E0DBA17F
:103BD000D348FFF713FB00210123D14A0846FFF722
:103BE00003F9002108236C220846FEF7EFFFE77077
:103BF000D6E7002108236C220846FEF7E7FFD5A18F
:103C0000C748FFF7FBFA0123C54A08210020FFF748
:103C1000EBF80823542219460020FEF7D7FF0720AF
:103C2000E070BDE743E0F0E13EE156E1ECE108235E
:103C3000542219460020FEF7C9FFCCA1B848FFF76F
:103C4000DDFA0123B64A38210020FFF7CDF808231A
:103C50001E2238210020FEF7B9FF84F803909FE769
:103C6000A570FEF7E7FFE570A7A116E09EE060797A
:103C700010B16571C3A101E06771AAA1A848FFF75F
:103C8000BDFA00210123A64A0846FFF7ADF8082334
:103C90006C220021084630E2C4E1A148FFF7AEFAE9
:103CA00001239F4A38210020FFF79EF86DE7002985
:103CB0006FD0F0B1012835D0022851D0082867D143
:103CC00008231E2238210020FEF780FFE279B3A1ED
:103CD0009348FFF793FA00210123914A0846FFF722
:103CE00083F8002108235A220846FEF76FFFE5708B
:103CF0004EE0002108235A220846FEF767FF227A89
:103D0000ACA18748FFF77AFA0123854A08210020F1
:103D1000FFF76AF808234E2219460020FEF756FFE7
:103D2000E77035E008234E2219460020FEF74EFFCB
:103D30002069FCF76EFB02460B46A4A17848FFF70A
:103D40005DFA0123764A10210020FFF74DF8082381
:103D5000602210210020FEF739FF84F803A017E04D
:103D60000823602210210020FEF730FF7FA16C485D
:103D7000FFF744FA01236A4A38210020FFF734F89C
:103D800008231E2238210020FEF720FF84F803902C
:103D9000B570707900283FF4F9AEE07878B1012869
:103DA00023D002284DD008287FF406AFA770FEF775
:103DB00041FFFEF7D9FFE77000F030FAE5E6002199
:103DC00008235A220846FEF701FFE27973A15448FE
:103DD000FFF714FA00210123514A0846FFF704F8BF
:103DE0000823182200214E2014E008234E221946F1
:103DF0000020FEF7EBFE227A6EA14948FFF7FEF99C
:103E00000123474A08210020FEF7EEFF082318226D
:103E100019463C20FEF7DAFE72A14148FFF7EEF9A1
:103E200001233F4A28210020FEF7DEFF082312224B
:103E300028211820FEF7CAFE84F8028084F8048046
:103E4000A3E60823602210210020FEF7BFFE2069B0
:103E5000FCF7DFFA02460B465CA13148FFF7CEF9CA
:103E600001232F4A10210020FEF7BEFF08233C2229
:103E700010212A20CEE708231E2238210020FEF739
:103E8000A5FE58A12648FFF7B9F90123244A2821A5
:103E90000020FEF7A9FF0823122228211820FEF790
:103EA00095FE84F80480AFE00823242228211820FE
:103EB000FEF78CFE4BA11A48FFF7A0F90123184A20
:103EC00028210020FEF790FF0823122228215420E9
:103ED000FEF77CFE0420207196E0082312222821A0
:103EE0005420FEF773FE21A10D48FFF787F9012347
:103EF0000B4A38210020FEF777FF08231E227DE0C1
:103F00002C000020240000202073657474696E6703
:103F10002020202020202020202020200000000021
:103F2000C505002062757A7A6572204F4E2F4F4684
:103F3000463A4F4E202020200000000062757A7A19
:103F40006572204F4E2F4F46463A4F46462020205E
:103F5000200000007468726573686F6C642073657C
:103F60007420202020202020200000006261636B4C
:103F70002020202020202020202020202020202041
:103F80002000000062757A7A6572204F4E2F4F46EE
:103F9000463A4F46462020200000000074656D70B0
:103FA000657261747572653A202564202020202096
:103FB0002000000068756D69646974793A20256491
:103FC0002020202020202020200000004C6967684D
:103FD000743A20252E336620202020202020202007
:103FE00020000000202020202B2020202020202026
:103FF00020202D202020202020000000382100201B
:10400000FEF7E4FD84F80490B570707900283FF461
:10401000BDAD20794E49032846D0042852D0082847
:104020007FF4CAAD84F802A0FEF704FEFEF79CFE02
:10403000E570E27947A14D48FFF7E0F80021012340
:104040004A4A0846FEF7D0FE002108235A220846B5
:10405000FEF7BCFD227AAFF2A4014448FFF7CEF888
:104060000123424A08210020FEF7BEFE2069FCF72A
:10407000D0F902460B46AFF2AC013C48FFF7BEF860
:1040800001233A4A10210020FEF7AEFEAFF2AC0148
:104090003648FFF7B3F80123344A28210020FEF701
:1040A000A3FEAFF23811F8E5E07828B1012806D078
:1040B0002069FCF759F80CE0E079401C22E0207AF6
:1040C000401C33E0E078D8B101282DD02069FCF7FE
:1040D0009DF82061FCF79DF902460B46AFF21411E2
:1040E0002248FFF78BF80123204A10210020FEF719
:1040F0007BFE08233C2210212A20FEF767FD44E5C1
:10410000E079401EC2B2E271AFF270111748FFF7BA
:1041100075F800210123154A0846FEF765FE0823BD
:10412000182200214E20E8E7207A401EC2B22272F7
:10413000AFF280110D48FFF761F801230B4A082107
:104140000020FEF751FE0823182219463C20D4E730
:104150000000C84274656D70657261747572653A6D
:10416000202564202020202000000000C50500201C
:10417000FDF7F0FBFEF72CFFFEF74AFCFEF73AFCDA
:10418000FEF706FDFEF7B2FCFEF70CFCFEF7CEFCD8
:10419000FEF78CFDFCF706FCFCF7A4FD4FF4FA706B
:1041A000FDF7D6F8FEF746FDFEF7DEFD1148FCF7F9
:1041B0001FFE032210490F48FCF7DEFF0F48FEF7F1
:1041C00021F80FA11448FFF719F80123124A3821EA
:1041D0000020FEF709FE00BFFFF792FCFEF79EFEEF
:1041E000FEF768FBFCF7E4FCFCF7F8FBFEF7BCFD10
:1041F000F2E700005800002000000020200100200D
:104200002073657474696E67202020202020202090
:10421000202020200000000040000020154810B59C
:10422000407908B114A100E018A11D48FEF7E6FF8F
:10423000002101231A4A0846FEF7D6FD19A11848A5
:10424000FEF7DCFF0123164A08210020FEF7CCFD13
:104250001AA11348FEF7D2FF0123114A382100208A
:10426000FEF7C2FD08236C220021BDE8104008467D
:10427000FEF7ACBC2C00002062757A7A6572204F84
:104280004E2F4F46463A4F4E0000000062757A7A34
:104290006572204F4E2F4F46463A4F46460000006B
:1042A000C50500207468726573686F6C642073655F
:1042B0007420202020202020200000002062616344
:1042C0006B202020202020202020202020202020A3
:1042D00020000000010202030405060708090A0B7A
:1042E0000C0D0E0F10100102020304050607080949
:1042F0000A0B0C0D0E0F1010000000000000000053
:10430000010203040607080900000000010203047B
:104310000000000000000000002F00000000070067
:10432000070000147F147F1400242A7F2A120062E1
:10433000640813230036495522500000050300008D
:1043400000001C224100000041221C000014083E15
:1043500008140008083E0808000000A060000008DB
:10436000080808080000606000000020100804022F
:10437000003E5149453E0000427F400000426151ED
:104380004946002141454B31001814127F10002787
:1043900045454539003C4A4949300001710905034A
:1043A00000364949493600064949291E000036367B
:1043B00000000000563600000008142241000014DE
:1043C00014141414000041221408000201510906BB
:1043D00000324959513E007C1211127C007F49493C
:1043E0004936003E41414122007F4141221C007F6D
:1043F00049494941007F09090901003E4149497A7B
:10440000007F0808087F0000417F410000204041F4
:104410003F01007F08142241007F40404040007F60
:10442000020C027F007F0408107F003E4141413EA4
:10443000007F09090906003E4151215E007F0919EC
:1044400029460046494949310001017F0101003FE9
:104450004040403F001F2040201F003F4038403F69
:1044600000631408146300070870080700615149CD
:10447000454300007F41410000552A552A55000060
:1044800041417F00000402010204004040404040DE
:10449000000001020400002054545478007F484476
:1044A000443800384444442000384444487F0038AD
:1044B0005454541800087E0901020018A4A4A47CD6
:1044C000007F080404780000447D400000408084A0
:1044D0007D00007F102844000000417F4000007CE8
:1044E00004180478007C08040478003844444438F4
:1044F00000FC242424180018242418FC007C080440
:10450000040800485454542000043F444020003C18
:104510004040207C001C2040201C003C4030403C9F
:10452000004428102844001CA0A0A07C004464542F
:104530004C44141414141414000000000000000073
:104540000000000000000000000000F80000000073
:10455000000000333000000000100C06100C0600B4
:10456000000000000000000040C07840C07840001B
:10457000043F04043F040400007088FC083000007D
:10458000001820FF211E0000F008F000E0180000D5
:1045900000211C031E211E0000F00888700000008E
:1045A0001E2123241927211010160E0000000000E0
:1045B0000000000000000000000000E018040200FD
:1045C000000000071820400000020418E00000006E
:1045D0000040201807000000404080F0804040006C
:1045E0000202010F01020200000000F000000000C2
:1045F0000101011F01010100000000000000000096
:1046000080B070000000000000000000000000000A
:104610000001010101010101000000000000000093
:10462000003030000000000000000000806018042E
:10463000006018060100000000E010080810E0000B
:10464000000F102020100F00001010F800000000D4
:104650000020203F2020000000700808088870001B
:10466000003028242221300000300888884830009B
:104670000018202020110E000000C02010F80000BB
:1046800000070424243F240000F808888808080054
:104690000019212020110E0000E010888818000069
:1046A000000F112020110E0000380808C83808003B
:1046B0000000003F000000000070880808887000BB
:1046C000001C222121221C0000E010080810E0003C
:1046D0000000312222110F00000000C0C0000000C5
:1046E00000000030300000000000008000000000EA
:1046F00000008060000000000000804020100800E2
:1047000000010204081020004040404040404000AA
:104710000404040404040400000810204080000085
:104720000020100804020100007048080808F0008A
:104730000000003036010000C030C828E810E0005A
:104740000718272423140B000000C038E0000000E5
:10475000203C23020227382008F88888887000004F
:10476000203F202020110E00C03008080808380023
:10477000071820202010080008F808080810E0009A
:10478000203F202020100F0008F88888E80810003B
:10479000203F20202320180008F88888E80810000F
:1047A000203F200003000000C03008080838000047
:1047B00007182020221E020008F808000008F80848
:1047C000203F210101213F20000808F808080000CF
:1047D0000020203F2020000000000808F808080002
:1047E000C08080807F00000008F888C0281808007A
:1047F000203F20012638200008F8080000000000B3
:10480000203F20202020300008F8F800F8F80800A9
:10481000203F003F003F200008F830C00008F808A3
:10482000203F200007183F00E01008080810E000B3
:104830000F10202020100F0008F808080808F000CA
:10484000203F210101010000E01008080810E000ED
:104850000F18242438504F0008F888888888700082
:10486000203F2000030C3020007088080808380022
:104870000038202121221C00180808F80808180018
:104880000000203F2000000008F808000008F80899
:10489000001F202020201F000878880000C838084A
:1048A000000007380E010000F80800F80008F800C2
:1048B000033C0700073C030008186880806818085C
:1048C00020302C03032C30200838C800C8380800DA
:1048D0000000203F2000000010080808C838080029
:1048E0002038262120201800000000FE02020200CD
:1048F0000000007F40404000000C30C0000000007D
:10490000000000010638C00000020202FE000000A4
:10491000004040407F00000000000402020204004A
:104920000000000000000000000000000000000087
:10493000808080808080808000020204000000006F
:104940000000000000000000000080808080000067
:104950000019242222223F2008F800808000000055
:10496000003F112020110E00000000808080000018
:10497000000E112020201100000000808088F80027
:10498000000E112020103F20000080808080000059
:10499000001F222222221300008080F088888818BD
:1049A0000020203F202000000000808080808000C8
:1049B000006B94949493600008F80080808000005D
:1049C000203F210000203F20008098980000000038
:1049D0000020203F20200000000000809898000068
:1049E00000C08080807F000008F800008080800088
:1049F000203F24022D302000000808F800000000AD
:104A00000020203F20200000808080808080800067
:104A1000203F20003F20003F8080008080800000F9
:104A2000203F210000203F20000080808080000087
:104A3000001F202020201F008080008080000000B8
:104A400080FFA12020110E000000008080808000E7
:104A5000000E112020A0FF808080800080808000D8
:104A600020203F2120000100000080808080800005
:104A70000033242424241900008080E0808000007A
:104A80000000001F202000008080000000808000C7
:104A9000001F202020103F20808080000080808028
:104AA00000010E30080601008080008000808080B8
:104AB0000F300C030C300F000080800080808000DD
:104AC0000020312E0E312000808080000080808008
:104AD00080818E70180601000080808080808000B8
:104AE0000021302C2221300000000000807C0202D6
:104AF00000000000003F404000000000FF000000F8
:104B000000000000FF0000000002027C80000000A6
:104B10000040403F000000000006010102020404C2
:104B20000000000000000000CEC21060028C0000F7
:104B3000FE9292929292FE00000004047E01407E5A
:104B400042427E427E42427E4000B6C80000FC24C3
:104B50002424FC252624FC242424040040308F80B7
:104B6000844C55252525554C808080008C4B0008B1
:104B7000000000204000000044320008CC4B000838
:104B800040000020A009000054320008000000008E
:104B90000000000000000000010000001000000004
:104BA000000000000024F4000000000000000000ED
:104BB0000000000000000000010100010301001ED0
:0C4BC0005A000000000000000000FA4451
:04000005080000ED02
:00000001FF
